{
  "contractName": "SplitPayment",
  "abi": [
    {
      "inputs": [
        {
          "internalType": "address",
          "name": "_owner",
          "type": "address"
        }
      ],
      "stateMutability": "nonpayable",
      "type": "constructor"
    },
    {
      "inputs": [],
      "name": "owner",
      "outputs": [
        {
          "internalType": "address",
          "name": "",
          "type": "address"
        }
      ],
      "stateMutability": "view",
      "type": "function",
      "constant": true
    },
    {
      "inputs": [
        {
          "internalType": "address payable[]",
          "name": "to",
          "type": "address[]"
        },
        {
          "internalType": "uint256[]",
          "name": "amount",
          "type": "uint256[]"
        }
      ],
      "name": "send",
      "outputs": [],
      "stateMutability": "payable",
      "type": "function",
      "payable": true
    }
  ],
  "bytecode": "0x608060405234801561001057600080fd5b5060405161049a38038061049a83398101604081905261002f91610054565b600080546001600160a01b0319166001600160a01b0392909216919091179055610082565b600060208284031215610065578081fd5b81516001600160a01b038116811461007b578182fd5b9392505050565b610409806100916000396000f3fe6080604052600436106100295760003560e01c80638da5cb5b1461002e578063a645ff5f14610059575b600080fd5b34801561003a57600080fd5b5061004361006e565b60405161005091906102b3565b60405180910390f35b61006c6100673660046101e8565b61007d565b005b6000546001600160a01b031681565b6000546001600160a01b031633146100b05760405162461bcd60e51b81526004016100a7906102c7565b60405180910390fd5b80518251146100d15760405162461bcd60e51b81526004016100a7906102fe565b60005b8251811015610177578281815181106100fd57634e487b7160e01b600052603260045260246000fd5b60200260200101516001600160a01b03166108fc83838151811061013157634e487b7160e01b600052603260045260246000fd5b60200260200101519081150290604051600060405180830381858888f19350505050158015610164573d6000803e3d6000fd5b508061016f81610396565b9150506100d4565b505050565b600082601f83011261018c578081fd5b813560206101a161019c83610372565b610348565b82815281810190858301838502870184018810156101bd578586fd5b855b858110156101db578135845292840192908401906001016101bf565b5090979650505050505050565b600080604083850312156101fa578182fd5b823567ffffffffffffffff80821115610211578384fd5b818501915085601f830112610224578384fd5b8135602061023461019c83610372565b82815281810190858301838502870184018b1015610250578889fd5b8896505b848710156102865780356001600160a01b038116811461027257898afd5b835260019690960195918301918301610254565b509650508601359250508082111561029c578283fd5b506102a98582860161017c565b9150509250929050565b6001600160a01b0391909116815260200190565b6020808252601c908201527f6f6e6c79206f776e65722063616e2073656e64207472616e7366657200000000604082015260600190565b6020808252602a908201527f746f20616e6420616d6f756e7420617272617973206d757374206861766520736040820152690c2daca40d8cadccee8d60b31b606082015260800190565b60405181810167ffffffffffffffff8111828210171561036a5761036a6103bd565b604052919050565b600067ffffffffffffffff82111561038c5761038c6103bd565b5060209081020190565b60006000198214156103b657634e487b7160e01b81526011600452602481fd5b5060010190565b634e487b7160e01b600052604160045260246000fdfea26469706673582212208fa12303cc00fa8870b5378af8ae179f8e8a486fda4b71dec9048fcfedad966b64736f6c63430008000033",
  "immutableReferences": {},
  "source": "// SPDX-License-Identifier: MIT \r\npragma solidity ^0.8.0;\r\n\r\ncontract SplitPayment {\r\n\r\n    address public owner;\r\n\r\n    constructor(address _owner) {\r\n        owner = _owner;\r\n    }\r\n\r\n    modifier onlyOwner() {\r\n        require(msg.sender == owner, 'only owner can send transfer');\r\n        _;\r\n    }\r\n\r\n    function send(address payable[] memory to, uint[] memory amount) payable onlyOwner() public {\r\n        require(to.length == amount.length, 'to and amount arrays must have same length');\r\n        for (uint i=0; i < to.length; i++) {\r\n            to[i].transfer(amount[i]);\r\n        }\r\n    }\r\n}",
  "sourcePath": "C:\\Users\\cassi\\Documents\\DApps\\SplitPayment\\contracts\\SplitPayment.sol",
  "compiler": {
    "name": "solc",
    "version": "0.8.0+commit.c7dfd78e.Emscripten.clang"
  },
  "schemaVersion": "3.4.16",
  "updatedAt": "2023-11-14T01:14:25.616Z",
  "networkType": "ethereum",
  "devdoc": {
    "kind": "dev",
    "methods": {},
    "version": 1
  },
  "userdoc": {
    "kind": "user",
    "methods": {},
    "version": 1
  }
}